S00D00004C616230342E73726563A4
S11300000C942A000C9447000C9447000C9447006D
S11300100C9447000C9447000C9447000C940F0C6C
S11300200C9447000C9447000C9447000C94470030
S11300300C9447000C94180E0C9447000C94CD0DAE
S11300400C94510C0C9447000C9447000C944700FA
S11300500C94470011241FBECFE5D8E0DEBFCDBF0E
S113006010E0A0E6B0E0E0E8F2E202C005900D92F4
S1130070A23BB107D9F721E0A2EBB0E001C01D9289
S1130080A939B207E1F70E947E0C0C943E110C943E
S11300900000CF93DF93CDB7DEB727970FB6F89460
S11300A0DEBF0FBECDBF9B838A837D836C835F835A
S11300B04E838FE590E0FC0180818983F8948A81E6
S11300C09B812C813D81FC01318320838A819B812A
S11300D02E813F81FC01338322838A819B81FC0131
S11300E0178216828A819B81FC01158214828FE516
S11300F090E02981FC012083000027960FB6F89434
S1130100DEBF0FBECDBFDF91CF910895CF93DF93B4
S113011000D000D0CDB7DEB79C838B8319828FE5E6
S113012090E0FC0180818A83F8948B819C81FC019E
S113013084819581892B09F447C08B819C81FC01C2
S1130140208131818B819C81FC0186819781820F82
S1130150931FFC01808189838B819C81FC018681B2
S113016097819C012F5F3F4F8B819C81FC013783DA
S113017026838B819C81FC01268137818B819C8124
S1130180FC01828193812817390788F08B819C8137
S1130190FC01268137818B819C81FC0182819381C2
S11301A0281B390B8B819C81FC01378326838B812F
S11301B09C81FC01848195819C01215031098B81B2
S11301C09C81FC01358324838FE590E02A81FC0126
S11301D0208389810F900F900F900F90DF91CF9122
S11301E00895CF93DF9300D000D0CDB7DEB79B83C3
S11301F08A836C838FE590E0FC0180818983F89485
S11302008A819B81FC01248135818A819B81FC0147
S11302108281938128173907A0F58A819B81FC018B
S1130220208131818A819B81FC01468157818A81A9
S11302309B81FC0184819581BA01680F791F8A81B1
S11302409B81FC0142815381CB01BA010E94AB1016
S1130250820F931F2C81FC0120838A819B81FC01E6
S1130260848195819C012F5F3F4F8A819B81FC0192
S1130270358324838FE590E02981FC0120838FEF6F
S113028006C08FE590E02981FC01208380E00F9077
S11302900F900F900F90DF91CF910895CF93DF933C
S11302A01F92CDB7DEB789838981882F90E0817052
S11302B09927892B51F08BE390E02BE330E0F9018F
S11302C020812460FC01208309C08BE390E02BE3B0
S11302D030E0F90120812B7FFC0120838981882F64
S11302E090E082709927892B51F08BE390E02BE307
S11302F030E0F90120812860FC01208309C08BE3F0
S113030090E02BE330E0F9012081277FFC0120837A
S11303108981882F90E084709927892B51F08BE391
S113032090E02BE330E0F90120812061FC0120837F
S113033009C08BE390E02BE330E0F90120812F7EAC
S1130340FC0120838981882F90E088709927892B6C
S113035051F08BE390E02BE330E0F901208120623F
S1130360FC01208309C08BE390E02BE330E0F9012A
S113037020812F7DFC01208300000F90DF91CF911D
S11303800895CF93DF93CDB7DEB7A1970FB6F89456
S1130390DEBF0FBECDBF89A38BE390E02BE330E03B
S11303A0F90120812064FC01208389A182958F704A
S11303B00E944E018BE390E02BE330E0F9012081B1
S11303C02F7BFC0120838BE390E02BE330E0F901E9
S11303D020812064FC01208389A10E944E018BE3CB
S11303E090E02BE330E0F90120812F7BFC01208396
S11303F080E090E0A8E4B2E489839A83AB83BC8371
S11304002BEA3AEA4AEA50E469817A818B819C8139
S11304100E943E10DC01CB018D839E83AF83B8879D
S113042020E030E040E850E469817A818B819C814E
S11304300E943E10DC01CB0189879A87AB87BC8779
S113044020E030E040E85FE36D817E818F81988514
S11304500E94DA0E88231CF481E08D87B2C020E06C
S11304603FEF4FE757E469857A858B859C850E9429
S1130470391018160CF07BC020E030E04AE754E451
S113048069817A818B819C810E94DF0EDC01CB0122
S11304908E879F87A88BB98B20E030E04AE755E42C
S11304A06E857F85888999890E943E10DC01CB0185
S11304B08A8B9B8BAC8BBD8B20E030E040E85FE304
S11304C06A897B898C899D890E94DA0E88232CF4A1
S11304D081E090E09F8B8E8B3FC020E03FEF4FE7A1
S11304E057E46A897B898C899D890E943910181682
S11304F04CF520E030E040E251E46E857F85888948
S113050099890E943E10DC01CB01BC01CD010E94FF
S1130510580FDC01CB019F8B8E8B0FC080E991E0DB
S1130520998F888F888D998D0197F1F7998F888F8E
S11305308E899F8901979F8B8E8B8E899F89892BAA
S113054069F73FC06A897B898C899D890E94580F0D
S1130550DC01CB019F8B8E8B8E899F899B8F8A8F29
S11305608A8D9B8D0197F1F79B8F8A8F2AC020E09B
S113057030E04FE753E46D817E818F8198850E943E
S113058039101816ACF469857A858B859C850E9490
S1130590580FDC01CB019D8F8C8F8C8D9D8D9F8F8F
S11305A08E8F8E8D9F8D0197F1F79F8F8E8F0FC049
S11305B06D817E818F8198850E94580FDC01CB016B
S11305C08D878D8588A388A18A95F1F788A300007B
S11305D0A1960FB6F894DEBF0FBECDBFDF91CF91C9
S11305E00895CF93DF931F92CDB7DEB789838BE352
S11305F090E02BE330E0F90120812F77FC01208388
S113060089810E94C10100000F90DF91CF9108956C
S1130610CF93DF931F92CDB7DEB789838BE390E04E
S11306202BE330E0F90120812068FC0120838981DB
S11306300E94C10100000F90DF91CF910895CF93E4
S1130640DF9300D0CDB7DEB79A8389830BC089814D
S11306509A819C012F5F3F4F3A832983FC0180815B
S11306600E94080389819A81FC018081882379F79B
S113067000000F900F90DF91CF910895CF93DF93F7
S113068000D0CDB7DEB789836A838A81982F92958B
S1130690990F990F907C8981890F80680E94F102DB
S11306A000000F900F90DF91CF910895CF93DF93C7
S11306B0CDB7DEB72E970FB6F894DEBF0FBECDBF11
S11306C081E00E94F10280E090E0A0E0B0E4898340
S11306D09A83AB83BC8320E030E04AE755E4698128
S11306E07A818B819C810E943E10DC01CB018D8339
S11306F09E83AF83B88720E030E040E85FE36D81FC
S11307007E818F8198850E94DA0E88232CF481E003
S113071090E09A8789873FC020E03FEF4FE757E496
S11307206D817E818F8198850E94391018164CF551
S113073020E030E040E251E469817A818B819C8140
S11307400E943E10DC01CB01BC01CD010E94580F78
S1130750DC01CB019A8789870FC080E991E09C87EF
S11307608B878B859C850197F1F79C878B8789857F
S11307709A8501979A87898789859A85892B69F74C
S113078014C06D817E818F8198850E94580FDC0191
S1130790CB019A87898789859A859E878D878D85E0
S11307A09E850197F1F79E878D8700002E960FB6E0
S11307B0F894DEBF0FBECDBFDF91CF910895CF93E4
S11307C0DF93CDB7DEB7E9970FB6F894DEBF0FBE5F
S11307D0CDBF8AE390E02AE330E0F9012081246070
S11307E0FC0120838AE390E02AE330E0F9012081D0
S11307F02860FC0120838AE390E02AE330E0F901D9
S113080020812061FC0120838AE390E02AE330E028
S1130810F90120812062FC0120838AE390E02AE32D
S113082030E0F90120812064FC0120838AE390E018
S11308302AE330E0F90120812068FC01208380E074
S113084090E0A0E7B1E48E879F87A88BB98B20E066
S113085030E04AE755E46E857F85888999890E944E
S11308603E10DC01CB018A8B9B8BAC8BBD8B20E0D3
S113087030E040E85FE36A897B898C899D890E9426
S1130880DA0E88232CF481E090E09F8B8E8B3FC09E
S113089020E03FEF4FE757E46A897B898C899D8983
S11308A00E94391018164CF520E030E040E251E483
S11308B06E857F85888999890E943E10DC01CB0171
S11308C0BC01CD010E94580FDC01CB019F8B8E8BA4
S11308D00FC080E991E0998F888F888D998D019759
S11308E0F1F7998F888F8E899F8901979F8B8E8BC3
S11308F08E899F89892B69F714C06A897B898C89C1
S11309009D890E94580FDC01CB019F8B8E8B8E89B1
S11309109F899B8F8A8F8A8D9B8D0197F1F79B8F7F
S11309208A8F8BE390E02BE330E0F90120812F776D
S1130930FC0120838BE390E02BE330E0F90120817C
S11309402F7BFC01208319828AC08BE390E02BE388
S113095030E0F90120812064FC01208383E00E94BF
S11309604E018BE390E02BE330E0F90120812F7BF3
S1130970FC01208380E090E0A0EAB0E48A839B83BA
S1130980AC83BD8320E030E04AE755E46A817B8193
S11309908C819D810E943E10DC01CB018C8F9D8F48
S11309A0AE8FBF8F20E030E040E85FE36C8D7D8D3B
S11309B08E8D9F8D0E94DA0E88232CF481E090E0C6
S11309C099A388A33FC020E03FEF4FE757E46C8D25
S11309D07D8D8E8D9F8D0E94391018164CF520E068
S11309E030E040E251E46A817B818C819D810E94E8
S11309F03E10DC01CB01BC01CD010E94580FDC018B
S1130A00CB0199A388A30FC080E991E09BA38AA39B
S1130A108AA19BA10197F1F79BA38AA388A199A11D
S1130A20019799A388A388A199A1892B69F714C078
S1130A306C8D7D8D8E8D9F8D0E94580FDC01CB01B6
S1130A4099A388A388A199A19DA38CA38CA19DA1FE
S1130A500197F1F79DA38CA389818F5F8983898195
S1130A60833008F472CF8BE390E02BE330E0F9019C
S1130A7020812064FC01208382E00E944E018BE3EC
S1130A8090E02BE330E0F90120812F7BFC012083EF
S1130A9080E090E0A0E8BFE38A879B87AC87BD87AE
S1130AA020E030E04AE755E46A857B858C859D85A6
S1130AB00E943E10DC01CB0188AB99ABAAABBBAB67
S1130AC020E030E040E85FE368A979A98AA99BA9FE
S1130AD00E94DA0E88232CF481E090E09DAB8CAB6D
S1130AE03FC020E03FEF4FE757E468A979A98AA9FE
S1130AF09BA90E94391018164CF520E030E040E222
S1130B0051E46A857B858C859D850E943E10DC01BD
S1130B10CB01BC01CD010E94580FDC01CB019DAB80
S1130B208CAB0FC080E991E09FAB8EAB8EA99FA9DF
S1130B300197F1F79FAB8EAB8CA99DA901979DAB53
S1130B408CAB8CA99DA9892B69F714C068A979A9D4
S1130B508AA99BA90E94580FDC01CB019DAB8CABE9
S1130B608CA99DA999AF88AF88AD99AD0197F1F78C
S1130B7099AF88AF88E20E94F10288E00E94F102F6
S1130B8081E00E94F10280E090E0A0E0B0E48E8376
S1130B909F83A887B98720E030E04AE755E46E8157
S1130BA07F81888599850E943E10DC01CB018EA34C
S1130BB09FA3A8A7B9A720E030E040E85FE36EA1B7
S1130BC07FA188A599A50E94DA0E88232CF481E0E0
S1130BD090E09BA78AA73FC020E03FEF4FE757E490
S1130BE06EA17FA188A599A50E94391018164CF50D
S1130BF020E030E040E251E46E817F818885998570
S1130C000E943E10DC01CB01BC01CD010E94580FB3
S1130C10DC01CB019BA78AA70FC080E991E09DA7C7
S1130C208CA78CA59DA50197F1F79DA78CA78AA5F4
S1130C309BA501979BA78AA78AA59BA5892B69F7E2
S1130C4014C06EA17FA188A599A50E94580FDC014C
S1130C50CB019BA78AA78AA59BA59FA78EA78EA534
S1130C609FA50197F1F79FA78EA786E00E94F10246
S1130C708CE00E94F1020000E9960FB6F894DEBF02
S1130C800FBECDBFDF91CF910895CF93DF93CDB742
S1130C90DEB786E590E024EAFC012083000086E5C7
S1130CA090E0FC0180818823D4F70000DF91CF918C
S1130CB00895CF93DF93CDB7DEB786E590E024E9BE
S1130CC0FC012083000086E590E0FC018081882FF0
S1130CD090E080719927892BB1F70000DF91CF91C3
S1130CE00895CF93DF931F92CDB7DEB7898383E254
S1130CF090E02981FC01208386E590E024E8FC0152
S1130D002083000086E590E0FC0180818823D4F7ED
S1130D1081E290E0FC01808121E0823109F020E051
S1130D2081E290E0FC01908181E09C3109F080E057
S1130D30822B882311F080E001C081E00F90DF91C5
S1130D40CF910895CF93DF931F92CDB7DEB78983F8
S1130D5086E590E02981222311F024EC01C024E8E7
S1130D60FC012083000086E590E0FC01808188235B
S1130D70D4F783E290E0FC0180810F90DF91CF9162
S1130D800895CF93DF93CDB7DEB780E290E024E6F9
S1130D90FC0120830000DF91CF910895CF93DF936E
S1130DA0CDB7DEB787E390E020E9FC0120838DE234
S1130DB090E021E5FC0120830000DF91CF910895AC
S1130DC0CF93DF93CDB7DEB787E290E020E4FC0158
S1130DD0208386E290E02FE8FC01208386E290E005
S1130DE026E230E0F90120812066FC012083000026
S1130DF0DF91CF910895CF93DF93CDB7DEB78EE423
S1130E0090E02EE430E0F90120812D60FC01208384
S1130E1089E590E029E530E0F90120812061FC01B9
S1130E2020838AE490E02BE136E0FC0131832083C7
S1130E300000DF91CF910895CF93DF93CDB7DEB754
S1130E408AE290E02AE230E0F90120812869FC017D
S1130E5020830000DF91CF910895CF93DF931F92F9
S1130E60CDB7DEB789838FE290E02981FC0120832E
S1130E7000008EE290E0FC0180818823D4F78FE2A9
S1130E8090E0FC0180810F90DF91CF910895CF9382
S1130E90DF93CDB7DEB784E290E0FC018081882F38
S1130EA090E09093B5008093B40085E290E0FC015B
S1130EB08081882F90E0982F88279C018091B4002E
S1130EC09091B500822B932B9093B5008093B4003E
S1130ED02091B4003091B50042E3429FC001439F8A
S1130EE0900D1124892F9927869586959093B700A4
S1130EF08093B6000000DF91CF910895CF93DF93E4
S1130F00CDB7DEB768970FB6F894DEBF0FBECDBF7E
S1130F109C8B8B8B7E8B6D8B588F4F8B8B899C8995
S1130F202AE030E0B9010E94BF109A8389832B899B
S1130F303C8989819A81A901481B590BCA012AE07D
S1130F4030E0B9010E94BF10CB019C838B831E82C9
S1130F501D828B819C8182959295907F9827807FBA
S1130F6098279C838B832B813C8189819A81820F72
S1130F70931F9E838D838D899E892AE030E0B90179
S1130F800E94BF1098878F832D893E898F81988511
S1130F90A901481B590BCA012AE030E0B9010E949B
S1130FA0BF10CB019A8789871C861B8689859A8501
S1130FB082959295907F9827807F98279A87898732
S1130FC029853A858F819885820F931F9C878B870B
S1130FD08F89988D2AE030E0B9010E94BF109E8766
S1130FE08D872F89388D8D859E85A901481B590BC6
S1130FF0CA012AE030E0B9010E94BF10CB01988BEE
S11310008F871A8A198A8F85988982959295907FFD
S11310109827807F9827988B8F872F8538898D858F
S11310209E85820F931F9A8B898B0E94450680EDC3
S11310300E94710680E00E94710689890E947106EF
S11310408B850E9471068D810E9471060E9459064B
S1131050000068960FB6F894DEBF0FBECDBFDF91D7
S1131060CF910895CF93DF9300D000D000D0CDB7B7
S1131070DEB79A8389837C836B835E834D830E946E
S1131080450680ED0E94710680E00E9471060E9470
S1131090450681ED0E94710681E00E94A206282F78
S11310A030E08D819E81FC013183208381E00E94A8
S11310B0A206282F30E08B819C81FC0131832083A0
S11310C080E00E94A206282F30E089819A81FC01E9
S11310D0318320830E945906000026960FB6F894A7
S11310E0DEBF0FBECDBFDF91CF910895CF93DF93C5
S11310F0CDB7DEB728970FB6F894DEBF0FBECDBFCD
S113110098878F8388E390E028E330E0F901208119
S11311102F7EFC01208380E00E942D07882F90E021
S11311209A83898380E00E942D07882F90E09C8316
S11311308B8388E390E028E330E0F901208120618B
S1131140FC01208389819A81982F88279A83898337
S11311508B819C8107979C838B8329813A818B8126
S11311609C81820F931F9A83898389819A819595A3
S1131170879595958795959587959A838983898190
S11311809A819E838D838D819E81092E000CAA0BEA
S1131190BB0BBC01CD010E94890FDC01CB0120E017
S11311A030E040E25FE3BC01CD010E943E10DC016F
S11311B0CB01BC01CD010E94510FDC01CB019E8308
S11311C08D838F819885892B19F48D819E811FC011
S11311D08F8198850197B9F42D813E81C901880FCB
S11311E0991F880F991F880F991F820F931F25E05D
S11311F030E0B9010E94BF10CB0180969E838D839D
S11312008D819E8104C01E821D828D819E812896BF
S11312100FB6F894DEBF0FBECDBFDF91CF91089516
S1131220CF93DF9300D000D000D0CDB7DEB79A8340
S113123089837C836B835E834D830E9456038981FB
S11312409A818230910509F487C08330910509F4AD
S1131250D6C0019709F0D9C19D818B81692F0E9465
S11312603E0382E690E00E941F038091B6009091B5
S1131270B7000A97E0F18091B6009091B7004AE078
S113128050E064E471E00E94FE108DE00E94AD0D18
S11312908AE00E94AD0D809144010E94AD0D8EE262
S11312A00E94AD0D809145010E94AD0D0E94BC0DC0
S11312B09D818B81875F692F0E943E038091440149
S11312C00E9408039D818B81865F692F0E943E03E3
S11312D08CE690E00E941F039D818B81855F692FBE
S11312E00E943E03809145010E9408038EC18091B3
S11312F0B6009091B7004AE050E064E471E00E94C7
S1131300FE108DE00E94AD0D8AE00E94AD0D80912B
S113131044010E94AD0D0E94BC0D9D818B81875FAD
S1131320692F0E943E038EE690E00E941F039D8178
S11313308B81865F692F0E943E038CE690E00E94B9
S11313401F039D818B81855F692F0E943E038091DD
S113135044010E94080359C19D818B81692F0E9419
S11313603E0380E790E00E941F038091B2009091B9
S1131370B3004AE050E06CE671E00E94FE108DE09C
S11313800E94AD0D8AE00E94AD0D80916C010E9417
S1131390AD0D80916D010E94AD0D8EE20E94AD0DE8
S11313A080916E010E94AD0D0E94BC0D9D818B81C8
S11313B0895F692F0E943E0380916C010E9408039B
S11313C09D818B81885F692F0E943E0380916D010E
S11313D00E9408039D818B81875F692F0E943E03D1
S11313E08CE690E00E941F039D818B81865F692FAC
S11313F00E943E0380916E010E94080306C1809101
S1131400B8009091B9009595879595958795959590
S113141087959595879587709927909379018093FF
S113142078018091B8009091B9008F7099279093BA
S113143084018093830180917801909179014AE03D
S113144050E068E571E00E94FE109D818B81692F58
S11314500E943E03809158010E9408038DE00E947F
S1131460AD0D8AE00E94AD0D809158010E94AD0D32
S1131470809183019091840144E150E068E571E03A
S11314800E94FE109D818B818F5F692F0E943E0315
S1131490809158010E940803809158010E94AD0D6B
S11314A09D818B818E5F692F0E943E0387E790E0C8
S11314B00E941F038AE30E94AD0D8091BA009091AF
S11314C0BB00959587959595879595958795959561
S11314D087958770992790937901809378018091FB
S11314E0BA009091BB008F709927909384018093E8
S11314F08301809178019091790144E150E068E59D
S113150071E00E94FE109D818B818D5F692F0E9486
S11315103E03809158010E940803809158010E9463
S1131520AD0D809183019091840144E150E068E520
S113153071E00E94FE109D818B818C5F692F0E9457
S11315403E03809158010E940803809158010E9433
S1131550AD0D9D818B818B5F692F0E943E0387E7D0
S113156090E00E941F038AE30E94AD0D8091BC00AD
S11315709091BD00959587959595879595958795B7
S11315809595879587709927909379018093780131
S11315908091BC009091BD008F7099279093840135
S11315A080938301809178019091790144E150E026
S11315B068E571E00E94FE109D818B818A5F692F2E
S11315C00E943E03809158010E94080380915801B3
S11315D00E94AD0D809183019091840144E150E01B
S11315E068E571E00E94FE109D818B81895F692FFF
S11315F00E943E03809158010E9408038091580183
S11316000E94AD0D0E94BC0D0000000026960FB68E
S1131610F894DEBF0FBECDBFDF91CF910895CF9375
S1131620DF93CDB7DEB728970FB6F894DEBF0FBEB1
S1131630CDBF0E948D0D9A83898389819A81FC0193
S11316402081318189819A81FC018481958101976E
S1131650820F931FFC01108289819A81FC01808191
S11316609181909377018093760189819A81FC011D
S113167015821482809176019091770169E770E078
S11316800E94F510892B59F48EE790E00E941F0305
S113169081E090E09093610080936000ACC0809101
S11316A076019091770163E870E00E94F510892B30
S11316B059F488E890E00E941F0382E090E0909340
S11316C061008093600097C08091760190917701CA
S11316D06DE870E00E94F510892B89F482E990E0AE
S11316E00E941F0383E090E0909361008093600068
S11316F081E090E09093BF008093BE00FFCF809183
S113170076019091770167E970E00E94F510892BCA
S113171009F071C0F8948AE791E00E94B40E7894BD
S113172080917A01882F90E0C097880F991F9C01BF
S1131730220F331F220F331F280F391F80917B0183
S1131740882F90E0C097820F931F9C838B83809196
S11317507C01882F90E0C097880F991F9C01220F6D
S1131760331F220F331F280F391F80917D01882FCB
S113177090E0C097820F931F9E838D8380917E019A
S1131780882F90E0C097880F991F9C01220F331F68
S1131790220F331F280F391F80917F01882F90E07B
S11317A0C097820F931F98878F838B819C81489762
S11317B044F48D819E81CC9724F48F819885CC97B5
S11317C05CF08FE990E00E94950E83E090E09093A6
S11317D06100809360000FC04F8158852D813E8148
S11317E08B819C81B9010E947E0783E090E09093F5
S11317F0610080936000809160009091610041E0FD
S113180050E060E070E00E941009000028960FB6D6
S1131810F894DEBF0FBECDBFDF91CF9108951F9224
S11318200F9200905F000F9211242F933F934F93D8
S11318305F936F937F938F939F93AF93BF93EF9334
S1131840FF93CF93DF93CDB7DEB74CEB50E06AEB59
S113185070E088EB90E00E94320880E090E00E9403
S113186076089093B3008093B2008091BE0090916B
S1131870BF00892B09F4A8950000DF91CF91FF9157
S1131880EF91BF91AF919F918F917F916F915F91F4
S11318904F913F912F910F9000925F000F901F90F6
S11318A018951F920F9200905F000F9211242F93AE
S11318B03F934F935F936F937F938F939F93AF93D4
S11318C0BF93EF93FF93CF93DF93CDB7DEB70E941F
S11318D047070000DF91CF91FF91EF91BF91AF9146
S11318E09F918F917F916F915F914F913F912F9134
S11318F00F9000925F000F901F901895CF93DF9385
S113190000D0CDB7DEB781E390E02FEFFC01208358
S11319100E94DF030E94E0060E94CE060E94C106D8
S11319200E94FB0642E150E061E170E080E190E05A
S11319300E947E070E94F30C60E875E280E090E06C
S11319400E942E0D86E99DE00E94E00C0E948D0D00
S11319509A8389830E941C0785E590E025E530E0A1
S1131960F90120812F78FC01208385E590E025E5AD
S113197030E0F90120812068FC01208387E0877032
S11319808860982F88E10FB6F894A89581BD0FBEA2
S113199091BD789401C0889589819A81FC01208148
S11319A0318189819A81FC01848195810197820F1B
S11319B0931FFC0180818D3071F70E940F0BEACFD9
S11319C0CF93DF9300D0CDB7DEB79A838983898123
S11319D09A819093C1008093C00000000F900F90F3
S11319E0DF91CF910895CF93DF93CDB7DEB70E94F7
S11319F0160D10924301109242018AE290E028ED04
S1131A00FC01208360E875E280E090E00E942E0DE6
S1131A108FEF8093850110928E011092980110929D
S1131A20970178940000DF91CF910895CF93DF93CD
S1131A30CDB7DEB740E450E062EC70E086E891E0B8
S1131A400E94490040E450E062E071E08FE891E0D8
S1131A500E9449000000DF91CF910895EF92FF9218
S1131A600F931F93CF93DF9300D000D000D0CDB756
S1131A70DEB76B837C838D839E838B819C81AD8158
S1131A80BE8180589B47A14EBF4F880F991FAA1F44
S1131A90BB1F880F991FAA1FBB1F880F991FAA1F5E
S1131AA0BB1F7C018D018B819C81AD81BE81880F20
S1131AB0991FAA1FBB1F880F991FAA1FBB1F880F3E
S1131AC0991FAA1FBB1F880F991FAA1FBB1F9C0128
S1131AD0AD01C801B7010E94D310DA01C901019711
S1131AE09A83898389E290E02981FC01208380E440
S1131AF090E029813A81232F3327FC0120830000C1
S1131B0026960FB6F894DEBF0FBECDBFDF91CF91FE
S1131B101F910F91FF90EF900895CF93DF93CDB76E
S1131B20DEB786E891E0DF91CF910895CF93DF93FC
S1131B301F92CDB7DEB78983000080918501882389
S1131B40E1F38CE290E02981FC012083109285016D
S1131B5000000F90DF91CF910895CF93DF931F92F0
S1131B60CDB7DEB7898369818FE891E00E94F100E7
S1131B700F90DF91CF910895CF93DF93CDB7DEB768
S1131B808FEF80938E018FE891E00E9486000E947F
S1131B90960D0000DF91CF9108951F920F9200904F
S1131BA05F000F9211240F931F932F933F934F9332
S1131BB05F936F937F938F939F93AF93BF93EF93B1
S1131BC0FF93CF93DF93CDB7DEB780918E01882347
S1131BD0A9F08091930190919401892B49F00CE232
S1131BE010E08FE891E00E948600F801808309C02C
S1131BF010928E018FEF8093850103C08FEF809345
S1131C0085010000DF91CF91FF91EF91BF91AF91DA
S1131C109F918F917F916F915F914F913F912F9100
S1131C201F910F910F9000925F000F901F901895D5
S1131C301F920F9200905F000F9211242F933F93F5
S1131C404F935F936F937F938F939F93AF93BF93C0
S1131C50EF93FF93CF93DF931F92CDB7DEB78CE260
S1131C6090E0FC018081898380914201909143013D
S1131C70892B41F020914201309143018981F9017E
S1131C80099510C0698186E891E00E94F1008823DB
S1131C9049F480919701909198010196909398014D
S1131CA08093970100000F90DF91CF91FF91EF9106
S1131CB0BF91AF919F918F917F916F915F914F9160
S1131CC03F912F910F9000925F000F901F901895F5
S1131CD0CF93DF931F92CDB7DEB7898300008BE2E9
S1131CE090E0FC018081882F90E080729927892BF5
S1131CF0B1F38CE290E02981FC01208300000F9075
S1131D00DF91CF910895CF93DF93CDB7DEB7000075
S1131D108BE290E0FC0180818823D4F78CE290E090
S1131D20FC018081DF91CF910895CF93DF9300D0A0
S1131D30CDB7DEB79A8389830BC089819A819C01D0
S1131D402F5F3F4F3A832983FC0180810E94680EF4
S1131D5089819A81FC018081882379F700000F90A2
S1131D600F90DF91CF910895CF93DF9300D01F920E
S1131D70CDB7DEB79B838A830E94830E89838A81D1
S1131D809B819C012F5F3F4F3B832A832981FC0168
S1131D90208389818D3021F48A819B81FC0110820A
S1131DA089818D3049F700000F900F900F90DF91DB
S1131DB0CF9108950E94C40F08F481E008950E9411
S1131DC0F30E0C94FF0F0E94F80F58F00E94F10FCD
S1131DD040F029F45F3F29F00C94E80F51110C9462
S1131DE033100C94EE0F0E94101068F39923B1F392
S1131DF0552391F3951B550BBB27AA27621773072D
S1131E00840738F09F5F5F4F220F331F441FAA1FC0
S1131E10A9F335D00E2E3AF0E0E832D0915050407C
S1131E20E695001CCAF72BD0FE2F29D0660F771F2A
S1131E30881FBB1F261737074807AB07B0E809F010
S1131E40BB0B802DBF01FF2793585F4F3AF09E3F95
S1131E50510578F00C94E80F0C9433105F3FE4F3D1
S1131E60983ED4F3869577956795B795F7959F5FD8
S1131E70C9F7880F911D9695879597F90895E1E024
S1131E80660F771F881FBB1F621773078407BA0783
S1131E9020F0621B730B840BBA0BEE1F88F7E095DE
S1131EA008950E94580F6894B1110C94331008954A
S1131EB00E94181088F09F5798F0B92F9927B751AE
S1131EC0B0F0E1F0660F771F881F991F1AF0BA95DA
S1131ED0C9F714C0B13091F00E943210B1E00895F6
S1131EE00C943210672F782F8827B85F39F0B93FE8
S1131EF0CCF3869577956795B395D9F73EF490958D
S1131F008095709561957F4F8F4F9F4F0895E8940A
S1131F1009C097FB3EF490958095709561957F4F2D
S1131F208F4F9F4F9923A9F0F92F96E9BB279395DB
S1131F30F695879577956795B795F111F8CFFAF4EB
S1131F40BB0F11F460FF1BC06F5F7F4F8F4F9F4F1C
S1131F5016C0882311F096E911C0772321F09EE87A
S1131F60872F762F05C0662371F096E8862F70E0E0
S1131F7060E02AF09A95660F771F881FDAF7880FBA
S1131F809695879597F90895990F0008550FAA0B10
S1131F90E0E8FEEF16161706E807F907C0F0121678
S1131FA01306E407F50798F0621B730B840B950B7B
S1131FB039F40A2661F0232B242B252B21F40895D0
S1131FC00A2609F4A140A6958FEF811D811D08956D
S1131FD097F99F6780E870E060E008959FEF80ECD8
S1131FE0089500240A94161617061806090608957B
S1131FF000240A9412161306140605060895092EE1
S11320000394000C11F4882352F0BB0F40F4BF2B4F
S113201011F460FF04C06F5F7F4F8F4F9F4F08958F
S113202057FD9058440F551F59F05F3F71F0479585
S1132030880F97FB991F61F09F3F79F0879508956A
S1132040121613061406551FF2CF4695F1DF08C089
S1132050161617061806991FF1CF869571056105A6
S113206008940895E894BB2766277727CB0197F94E
S113207008950E94C40F08F48FEF08950E94511030
S11320800C94FF0F0E94F10F38F00E94F80F20F01B
S1132090952311F00C94E80F0C94EE0F11240C947A
S11320A033100E94101070F3959FC1F3950F50E008
S11320B0551F629FF001729FBB27F00DB11D639FF6
S11320C0AA27F00DB11DAA1F649F6627B00DA11D9C
S11320D0661F829F2227B00DA11D621F739FB00D42
S11320E0A11D621F839FA00D611D221F749F3327B2
S11320F0A00D611D231F849F600D211D822F762F4B
S11321006A2F11249F5750409AF0F1F088234AF027
S1132110EE0FFF1FBB1F661F771F881F9150504093
S1132120A9F79E3F510580F00C94E80F0C943310EE
S11321305F3FE4F3983ED4F3869577956795B7951A
S1132140F795E7959F5FC1F7FE2B880F911D969534
S1132150879597F90895AA1BBB1B51E107C0AA1FD5
S1132160BB1FA617B70710F0A61BB70B881F991F34
S11321705A95A9F780959095BC01CD01089597FBD8
S1132180072E16F4009407D077FD09D00E94AB10F7
S113219007FC05D03EF4909581959F4F0895709566
S11321A061957F4F0895A1E21A2EAA1BBB1BFD0166
S11321B00DC0AA1FBB1FEE1FFF1FA217B307E40722
S11321C0F50720F0A21BB30BE40BF50B661F771F7A
S11321D0881F991F1A9469F760957095809590955A
S11321E09B01AC01BD01CF010895FB01DC018D9180
S11321F0019080190110D9F3990B089545325105C6
S113220020F4423010F00C940911FB011082CB0130
S11322100895BB274A3031F4992322F4BDE2909506
S113222081959F4F0C941511BB27FB015527AA27B5
S1132230880F991FAA1FA41710F0A41B839550514F
S1132240B9F7A05DAA3308F0A95DA193009779F7C7
S1132250B111B1931192CB010C942E11DC01FC014C
S1132260672F71917723E1F7329704C07C916D93C6
S113227070836291AE17BF07C8F30895F894FFCF37
S11322800100566F6C746167653A20002E003000BF
S113229054656D703A20003A00766F6C7400566F86
S11322A06C740074656D700054656D700074696DB4
S11322B0650054696D650073657474696D650057D4
S11322C0726F6E672074696D6520666F726D6174DC
S10522D00D00FB
S9030000FC
