S00D00004C616230342E73726563A4
S11300000C942A000C9447000C9447000C9447006D
S11300100C9447000C9447000C9447000C94470040
S11300200C9447000C9447000C9447000C94470030
S11300300C9447000C9447000C9447000C94470020
S11300400C9428010C9447000C9447000C9447002E
S11300500C94470011241FBECFE5D8E0DEBFCDBF0E
S113006010E0A0E6B0E0E4EFFAE002C005900D92E3
S1130070AA37B107D9F720E0AAE7B0E001C01D9282
S1130080A03CB207E1F70E94B0030C9478050C94ED
S1130090000080FF02C0DA9A01C0DA9881FF02C032
S11300A0DB9A01C0DB9882FF02C0DC9A01C0DC98B5
S11300B083FF02C0DD9A0895DD980895CF93C82F79
S11300C0DE9A82958F700E944900DE98DE9A8C2F0A
S11300D00E944900DE9887EC90E00197F1F700C098
S11300E00000CF910895DF980E945E000895DF9A82
S11300F00E945E000895CF93DF93EC0188818823EA
S113010031F021960E94770089918111FBCFDF9114
S1130110CF91089590E4699F800D112480680E9416
S113012073000895CF93D29AD39AD49AD59AD69A33
S1130130D79A8FE59AEE0197F1F700C00000DF9897
S1130140DE98C3E0DE9A83E00E944900DE988FE1E6
S11301509EE40197F1F700C00000C15099F7DE9AC0
S113016082E00E944900DE988FE99FE00197F1F751
S113017000C0000088E20E94730088E00E947300BF
S113018081E00E9473008FE39FE10197F1F700C0C3
S1130190000086E00E9473008CE00E947300CF91FF
S11301A0089584EA86BF06B607FEFDCF089584E964
S11301B086BF06B604FCFDCF089583B984E886BFE4
S11301C006B607FEFDCF81B121B191E0823109F07D
S11301D090E081E02C3109F080E0892B91E08927BF
S11301E00895811102C084E801C084EC86BF06B67C
S11301F007FEFDCF83B1089584B190E0909385000C
S11302008093840025B1922B909385008093840081
S113021042E3489F9001499F300D1124832F869516
S113022086958093820010928300089580E987BBAD
S113023081E58DB9089580E487B98FE886B908957A
S1130240359A369A08958FB9779BFECF8FB108956A
S11302501F920F920FB60F9211242F933F934F9337
S11302605F936F937F938F939F93AF93BF93EF931A
S1130270FF930E94FC00FF91EF91BF91AF919F917A
S11302808F917F916F915F914F913F912F910F903B
S11302900FBE0F901F901895EF92FF920F931F932C
S11302A0CF93DF938C01FB017A012AE030E0B9019E
S11302B00E941B05EC01C8018C1B9D0BB9010E9417
S11302C01B0562957295707F7627607F7627C60F2F
S11302D0D71FCF01B9010E941B058C01CF01801BE0
S11302E0910BB9010E941B0562957295707F762768
S11302F0607F7627060F171FC701B9010E941B05EF
S1130300FC01C7018E1B9F0BB9010E941B057B01D9
S1130310EE0CFF1CEE0CFF1CEE0CFF1CEE0CFF1C85
S1130320EE0EFF1E0E94D10080ED0E94DD0080E0F1
S11303300E94DD008E2D0E94DD00802F0E94DD00D2
S11303408C2F0E94DD000E94D700DF91CF911F9176
S11303500F91FF90EF900895EF92FF920F931F93E8
S1130360CF93DF93EC018B017A010E94D10080EDE1
S11303700E94DD0080E00E94DD000E94D10081ED3A
S11303800E94DD0081E00E94F10090E0F70191837A
S1130390808381E00E94F10090E0F80191838083E2
S11303A080E00E94F10090E0998388830E94D70046
S11303B0DF91CF911F910F91FF90EF9008950F93CC
S11303C01F93CF93DF938C01C49880E00E94230194
S11303D0C82FD0E080E00E942301682F70E0C49A07
S11303E0DC2FCC27675071096C0F7D1F75956795BD
S11303F07595679575956795072E000C880B990B75
S11304000E94220420E030E040E25FE30E94860480
S11304100E94EA0301151105A1F00130110599F4B8
S11304209B01220F331F220F331F220F331FC901D9
S1130430860F971F65E070E00E941B05CB01809634
S113044004C0CB0102C080E090E0DF91CF911F9106
S11304500F9108950F931F93CF93DF93C62FD42F3B
S11304608230910509F45AC08330910509F48EC095
S1130470019709F044C1642F8C2F0E948A0082E600
S113048090E00E947B0080918200909183008A30EA
S1130490910518F14AE062E970E00E9443056D2F6E
S11304A089E08C0F0E948A0002E910E0F801808143
S11304B00E9477006D2F8AE08C0F0E948A008CE6E0
S11304C090E00E947B006D2F8BE08C0F0E948A00CD
S11304D0F80181810E94770012C14AE062E970E06C
S11304E00E9443056D2F89E08C0F0E948A008EE6DE
S11304F090E00E947B006D2F8AE08C0F0E948A009E
S11305008CE690E00E947B006D2F8BE08C0F0E94A4
S11305108A00809192000E947700F1C0642F8C2F92
S11305200E948A0080E790E00E947B004AE068E82D
S113053070E080918600909187000E9443056D2FA2
S113054087E08C0F0E948A0008E810E0F80180819F
S11305500E9477006D2F88E08C0F0E948A00F801BA
S113056081810E9477006D2F89E08C0F0E948A00A0
S11305708CE690E00E947B006D2F8AE08C0F0E9435
S11305808A00F80182810E947700B9C0209180001E
S113059030918100C9019595879595958795959595
S11305A0879595958795877099279093A700809351
S11305B0A6002F7033273093BF002093BE004AE07B
S11305C068EA70E00E9443056D2F8C2F0E948A0018
S11305D008EA10E0F80180810E94770044E1B80144
S11305E08091BE009091BF000E9443056D2F81E071
S11305F08C0F0E948A00F80180810E9477006D2F81
S113060082E08C0F0E948A0087E790E00E947B00C2
S113061020917E0030917F00C9019595879595952D
S11306208795959587959595879587709927909344
S1130630A7008093A6002F7033273093BF00209328
S1130640BE0044E1B8010E9443056D2F83E08C0F86
S11306500E948A00F80180810E94770044E1B80179
S11306608091BE009091BF000E9443056D2F84E0ED
S11306708C0F0E948A00F80180810E9477006D2F00
S113068085E08C0F0E948A0087E790E00E947B003F
S113069020917C0030917D00C901959587959595B1
S11306A087959595879595958795877099279093C4
S11306B0A7008093A6002F7033273093BF002093A8
S11306C0BE0044E1B8010E9443056D2F86E08C0F03
S11306D00E948A00F80180810E94770044E1B801F9
S11306E08091BE009091BF000E9443056D2F87E06A
S11306F08C0F0E948A00F80180810E947700DF91AC
S1130700CF911F910F910895B09925C080917A00DF
S113071090917B00892B19F5809160009091610084
S11307200196909361008093600081E00E947300C1
S113073081E090E090937B0080937A008091600048
S11307409091610004975CF081E090E090936100E7
S113075080936000089510927B0010927A000895AF
S1130760899A0E9492000E941B010E9420010E940B
S1130770160184E680B9789442E150E061E170E0CA
S113078080E190E00E944C014CE750E06EE770E09D
S113079080E890E00E94AC0180E090E00E94DF01DC
S11307A090938700809386000E94840341E050E088
S11307B060E070E080916000909161000E942A02E4
S11307C02FEF81EE94E0215080409040E1F700C08B
S11307D00000DACF0E94F1036894B1110C948004F4
S11307E008950E94650488F09F5798F0B92F9927BF
S11307F0B751B0F0E1F0660F771F881F991F1AF008
S1130800BA95C9F714C0B13091F00E947F04B1E0E9
S113081008950C947F04672F782F8827B85F39F0E8
S1130820B93FCCF3869577956795B395D9F73EF4A0
S113083090958095709561957F4F8F4F9F4F089548
S1130840E89409C097FB3EF4909580957095619566
S11308507F4F8F4F9F4F9923A9F0F92F96E9BB271C
S11308609395F695879577956795B795F111F8CF98
S1130870FAF4BB0F11F460FF1BC06F5F7F4F8F4F03
S11308809F4F16C0882311F096E911C0772321F0F9
S11308909EE8872F762F05C0662371F096E8862F91
S11308A070E060E02AF09A95660F771F881FDAF7E8
S11308B0880F9695879597F9089557FD9058440F9A
S11308C0551F59F05F3F71F04795880F97FB991FAB
S11308D061F09F3F79F08795089512161306140668
S11308E0551FF2CF4695F1DF08C0161617061806F5
S11308F0991FF1CF86957105610508940895E894D0
S1130900BB2766277727CB0197F908950E9499049E
S11309100C940A050E94FC0438F00E94030520F0A0
S1130920952311F00C94F3040C94F90411240C9401
S113093080040E945D0470F3959FC1F3950F50E00D
S1130940551F629FF001729FBB27F00DB11D639F7D
S1130950AA27F00DB11DAA1F649F6627B00DA11D23
S1130960661F829F2227B00DA11D621F739FB00DC9
S1130970A11D621F839FA00D611D221F749F332739
S1130980A00D611D231F849F600D211D822F762FD2
S11309906A2F11249F5750409AF0F1F088234AF0AF
S11309A0EE0FFF1FBB1F661F771F881F915050401B
S11309B0A9F79E3F510580F00C94F3040C94800435
S11309C05F3FE4F3983ED4F3869577956795B795A2
S11309D0F795E7959F5FC1F7FE2B880F911D9695BC
S11309E0879597F9089597F99F6780E870E060E02C
S11309F008959FEF80EC089500240A9416161706B4
S1130A0018060906089500240A94121613061406FB
S1130A1005060895092E0394000C11F4882352F05E
S1130A20BB0F40F4BF2B11F460FF04C06F5F7F4F16
S1130A308F4F9F4F089597FB072E16F4009407D00D
S1130A4077FD09D00E942F0507FC05D03EF4909550
S1130A5081959F4F0895709561957F4F0895AA1BC6
S1130A60BB1B51E107C0AA1FBB1FA617B70710F095
S1130A70A61BB70B881F991F5A95A9F780959095C7
S1130A80BC01CD010895BB274A3031F4992322F4E7
S1130A90BDE2909581959F4F0C944F05BB27FB01B8
S1130AA05527AA27880F991FAA1FA41710F0A41B63
S1130AB083955051B9F7A05DAA3308F0A95DA193BD
S1130AC0009779F7B111B1931192CB010C94680599
S1130AD0DC01FC01672F71917723E1F7329704C0A1
S1130AE07C916D9370836291AE17BF07C8F308952C
S1070AF0F894FFCFA4
S1130AF40100566F6C746167653A20002E00300063
S10D0B0454656D703A20003A0000B9
S9030000FC
